{
  "contractName": "Auction",
  "abi": [
    {
      "inputs": [],
      "payable": false,
      "stateMutability": "nonpayable",
      "type": "constructor"
    },
    {
      "constant": true,
      "inputs": [],
      "name": "itemCount",
      "outputs": [
        {
          "internalType": "uint256",
          "name": "",
          "type": "uint256"
        }
      ],
      "payable": false,
      "stateMutability": "view",
      "type": "function"
    },
    {
      "constant": true,
      "inputs": [
        {
          "internalType": "uint256",
          "name": "",
          "type": "uint256"
        }
      ],
      "name": "items",
      "outputs": [
        {
          "internalType": "uint256",
          "name": "item_id",
          "type": "uint256"
        },
        {
          "internalType": "string",
          "name": "item_name",
          "type": "string"
        },
        {
          "internalType": "string",
          "name": "item_desc",
          "type": "string"
        },
        {
          "internalType": "uint256",
          "name": "base_price",
          "type": "uint256"
        },
        {
          "internalType": "uint256",
          "name": "min_increment",
          "type": "uint256"
        },
        {
          "internalType": "uint256",
          "name": "auction_price",
          "type": "uint256"
        }
      ],
      "payable": false,
      "stateMutability": "view",
      "type": "function"
    }
  ],
  "bytecode": "0x608060405234801561001057600080fd5b506100726040518060400160405280600481526020017f56617365000000000000000000000000000000000000000000000000000000008152506040518060600160405280603f815260200161051b603f91396064600a61007760201b60201c565b6101dd565b6001600081548092919060010191905055506040518060c001604052806001548152602001858152602001848152602001838152602001828152602001600081525060008060015481526020019081526020016000206000820151816000015560208201518160010190805190602001906100f3929190610138565b506040820151816002019080519060200190610110929190610138565b50606082015181600301556080820151816004015560a0820151816005015590505050505050565b828054600181600116156101000203166002900490600052602060002090601f016020900481019282601f1061017957805160ff19168380011785556101a7565b828001600101855582156101a7579182015b828111156101a657825182559160200191906001019061018b565b5b5090506101b491906101b8565b5090565b6101da91905b808211156101d65760008160009055506001016101be565b5090565b90565b61032f806101ec6000396000f3fe608060405234801561001057600080fd5b50600436106100365760003560e01c80636bfb0d011461003b578063bfb231d214610059575b600080fd5b610043610188565b6040518082815260200191505060405180910390f35b6100856004803603602081101561006f57600080fd5b810190808035906020019092919050505061018e565b604051808781526020018060200180602001868152602001858152602001848152602001838103835288818151815260200191508051906020019080838360005b838110156100e15780820151818401526020810190506100c6565b50505050905090810190601f16801561010e5780820380516001836020036101000a031916815260200191505b50838103825287818151815260200191508051906020019080838360005b8381101561014757808201518184015260208101905061012c565b50505050905090810190601f1680156101745780820380516001836020036101000a031916815260200191505b509850505050505050505060405180910390f35b60015481565b6000602052806000526040600020600091509050806000015490806001018054600181600116156101000203166002900480601f0160208091040260200160405190810160405280929190818152602001828054600181600116156101000203166002900480156102405780601f1061021557610100808354040283529160200191610240565b820191906000526020600020905b81548152906001019060200180831161022357829003601f168201915b505050505090806002018054600181600116156101000203166002900480601f0160208091040260200160405190810160405280929190818152602001828054600181600116156101000203166002900480156102de5780601f106102b3576101008083540402835291602001916102de565b820191906000526020600020905b8154815290600101906020018083116102c157829003601f168201915b505050505090806003015490806004015490806005015490508656fea265627a7a723158202c87197c1b7eb5200d2c4b4a8efe462e49015f37b0c7ea7667dc81f1b5459b7864736f6c63430005100032313874682043656e74757279206c6f7374206d61737465727069656365207769746820626c75652d616e642d776869746520666c6f72616c2064657369676e",
  "source": "pragma solidity >=0.4.21 <0.7.0;\n\ncontract Auction {\n// Model an Item\n\tstruct Item{\t\t\t\t// Can define a variable for storing image\n\t\tuint item_id;\n\t\tstring item_name;\n\t\tstring item_desc;\n\t\tuint base_price;\n\t\tuint min_increment;\n\t\tuint auction_price;    //Can add other tags for filtering purpose in future\n\t}\n// Store Items\n\n// Fetch Items\n\tmapping(uint => Item) public items;\n\t\n// Store Item Count\n\tuint public itemCount;\n\n// Constructor\n\tconstructor() public {\t\n\t\taddItem(\"Vase\", \"18th Century lost masterpiece with blue-and-white floral design\", 100, 10);\n\t\t//addItem(\"Painting\");\n\t}\n  \n// Function for more than 1 itemCount\n\tfunction addItem (string memory _name, string memory _desc, uint _baseValue, uint _increment) private {\n\t\titemCount ++;\n\t\t\n\t\titems[itemCount] = Item(itemCount, _name, _desc, _baseValue, _increment, 0);\n\t\n\t}\n  \n}\n",
  "sourcePath": "C:/Users/aksha/Desktop/MENG UTIAS/3. Summer 20/Block Chain/Project/Auction/contracts/Auction.sol",
  "compiler": {
    "name": "solc",
    "version": "0.5.16+commit.9c3226ce.Emscripten.clang"
  },
  "schemaVersion": "3.0.22",
  "updatedAt": "2020-08-16T19:09:16.121Z",
  "networkType": "ethereum",
  "devdoc": {
    "methods": {}
  },
  "userdoc": {
    "methods": {}
  }
}